:0600000000308A005928BF
:10000800F60003088301A6000408A7000A08A80050
:100018008A017708AC007808AB007908B1007A0843
:10002800AE007B08AF007C08AA007D08A9007E0806
:10003800AD007F08B00083018C1E3E288C121A0880
:10004800F7000A128A117F207708A1007808A20019
:100058007908A3002108F7002208F8002308F9000E
:100068000A128A11D1207708A0000A128A11652184
:100078000A128A112C08F7002B08F8003108F90039
:100088002E08FA002F08FB002A08FC002908FD00AA
:100098002D08FE003008FF002708840028088A0081
:1000A80026088300F60E760E0900203084002630DC
:1000B80063200A128A11582904068001840A04065A
:1000C800031D6028640000340310FF30F707F709A8
:1000D800031CF807F809031CF907F909031CFA07B8
:1000E800FA090800F801F901FA01F71FF928F803DD
:1000F800F903FA03F428F801F901FA01F928FF01D4
:10010800780D790DFD007D0803198E28FF0DF90182
:10011800F8170800F701F801F9010034FF107B0D0A
:100128007C0DFE007E0803199E280318FF14FC01AD
:10013800FB170800FE01FA01FB01FC0108007D081D
:1001480003198E28F813FF0C7D0CF9000318F81713
:100158000729FD08031DC128F701F801F90107293E
:1001680079030319F70A0319F80A0319F90A03109E
:10017800F90CF80CF70CFD0AAD28F908031DB42892
:10018800770878040319B028F81BA328FD0303197E
:10019800B0280310F70DF80DC82884018320FA0150
:1001A8008230FD07FD1B8E28F030FD07FD1BED2872
:1001B80018307D0203188E28FD08031DE6287F18D5
:1001C80068200800FD030310F70DF80DF90DFA0D6E
:1001D800E0280310F90CF80CF70CFD0FED28E328C4
:1001E800FA1FF9287F146820FA28FF018E30FD00D5
:1001F8008401FA080319AD280310FA0CF90CF80C5D
:10020800F70CFD0AFD2884080319003479088000DA
:1002180084037808800084037708800000348316FC
:1002280003131813831218138316981683121816BB
:1002380083161812831298171F3083169900181105
:1002480003178711031398109811831298168316B1
:100258000C168C1683128C128B170B17080026307D
:100268008301A4000230A500FF30A407031CA503E6
:1002780025082404FF30031D3929A407031CA503FE
:100288002508240403190800332983160317880155
:10029800890103138601880183128801F0308316CF
:1002A80087008312870108000A128A1149210A125D
:1002B8008A1113210A128A11981C6029181218161B
:1002C80060298301A400240899008316981C6929D1
:0402D8008312080085
:02400E00C23FAF
:00000001FF
