:0600000000308A006E28AA
:10000800FF0003088301A5000408A6000A08A7004A
:100018008A0183018C1E65288C121A08A0003728D3
:1000280008146528081065280A128A11CD200A12BA
:100038008A1165280A128A11A5200A128A116528D0
:100048000A128A117D200A128A1165283230352851
:100058009B0165284630352864303528AF3035286F
:10006800FF309B0065282008303A03193428013AEC
:1000780003192C28033A03192A28013A03193028AE
:10008800073A03193228013A03193428033A0319A5
:100098002C28013A03192E280F3A03193028013A5F
:1000A80003193228583A03191428033A0319162851
:1000B800013A03191828073A03191E28013A0319A7
:1000C80024282608840027088A0025088300FF0EB4
:1000D8007F0E090020308400253078200A128A110A
:1000E8002B2904068001840A0406031D7528640070
:1000F80000348301A101A2018814C630A300043092
:10010800A400FF30A307031CA40324082304031D31
:1001180085288810A030A3002630A400FF30A3074C
:10012800031CA40324082304031D9228A10A03190D
:10013800A20A0030220232300319210203180800F3
:1001480080288301A101A20188144130A300033053
:10015800A400FF30A307031CA40324082304031DE1
:10016800AD2888102530A3002830A400FF30A3074D
:10017800031CA40324082304031DBA28A10A031995
:10018800A20A0030220232300319210203180800A3
:10019800A8288301A101A2018814BC30A300013062
:1001A800A400FF30A307031CA40324082304031D91
:1001B800D5288810AA30A3002930A400FF30A3074F
:1001C800031CA40324082304031DE228A10A03191D
:1001D800A20A003022023230031921020318080053
:1001E800D02883160313181383121813831698162E
:1001F8008312181683161812831298171F30831645
:100208009900181103178711031398109811831276
:10021800981683160C168C1683128C128B170B17D4
:10022800080026308301A1000230A200FF30A10798
:10023800031CA20322082104FF30031D1B29A10768
:10024800031CA203220821040319080015290A1215
:100258008A113B210A128A114A210A128A11F520B1
:100268000A128A11981C362918121816362983166C
:100278000317880189010313860188018312880105
:10028800F030831687008312870108000C30830141
:100298009D009700FF30831692008312121092146B
:0A02A80012159B017D30950008003F
:02400E00C23FAF
:00000001FF
